{
  "contractName": "PrescribeRight",
  "abi": [
    {
      "inputs": [],
      "name": "doctor_id",
      "outputs": [
        {
          "internalType": "uint32",
          "name": "",
          "type": "uint32"
        }
      ],
      "stateMutability": "view",
      "type": "function",
      "constant": true
    },
    {
      "inputs": [],
      "name": "participant_id",
      "outputs": [
        {
          "internalType": "uint32",
          "name": "",
          "type": "uint32"
        }
      ],
      "stateMutability": "view",
      "type": "function",
      "constant": true
    },
    {
      "inputs": [
        {
          "internalType": "uint32",
          "name": "",
          "type": "uint32"
        }
      ],
      "name": "participants",
      "outputs": [
        {
          "internalType": "string",
          "name": "userName",
          "type": "string"
        },
        {
          "internalType": "string",
          "name": "password",
          "type": "string"
        },
        {
          "internalType": "string",
          "name": "participantType",
          "type": "string"
        },
        {
          "internalType": "address",
          "name": "participantAddress",
          "type": "address"
        },
        {
          "internalType": "string",
          "name": "aadhaar_no",
          "type": "string"
        }
      ],
      "stateMutability": "view",
      "type": "function",
      "constant": true
    },
    {
      "inputs": [
        {
          "internalType": "address",
          "name": "",
          "type": "address"
        }
      ],
      "name": "participants_addr",
      "outputs": [
        {
          "internalType": "string",
          "name": "",
          "type": "string"
        }
      ],
      "stateMutability": "view",
      "type": "function",
      "constant": true
    },
    {
      "inputs": [
        {
          "internalType": "address",
          "name": "",
          "type": "address"
        },
        {
          "internalType": "uint256",
          "name": "",
          "type": "uint256"
        }
      ],
      "name": "patientRecords",
      "outputs": [
        {
          "internalType": "address",
          "name": "PatientAddr",
          "type": "address"
        },
        {
          "internalType": "uint256",
          "name": "patientRecordId",
          "type": "uint256"
        },
        {
          "internalType": "string",
          "name": "medicine",
          "type": "string"
        },
        {
          "internalType": "uint32",
          "name": "timestamp",
          "type": "uint32"
        }
      ],
      "stateMutability": "view",
      "type": "function",
      "constant": true
    },
    {
      "inputs": [],
      "name": "patient_id",
      "outputs": [
        {
          "internalType": "uint32",
          "name": "",
          "type": "uint32"
        }
      ],
      "stateMutability": "view",
      "type": "function",
      "constant": true
    },
    {
      "inputs": [],
      "name": "pharm_id",
      "outputs": [
        {
          "internalType": "uint32",
          "name": "",
          "type": "uint32"
        }
      ],
      "stateMutability": "view",
      "type": "function",
      "constant": true
    },
    {
      "inputs": [],
      "name": "record_id",
      "outputs": [
        {
          "internalType": "uint32",
          "name": "",
          "type": "uint32"
        }
      ],
      "stateMutability": "view",
      "type": "function",
      "constant": true
    },
    {
      "inputs": [
        {
          "internalType": "string",
          "name": "_name",
          "type": "string"
        },
        {
          "internalType": "string",
          "name": "_pass",
          "type": "string"
        },
        {
          "internalType": "address",
          "name": "_pAdd",
          "type": "address"
        },
        {
          "internalType": "string",
          "name": "_pType",
          "type": "string"
        },
        {
          "internalType": "string",
          "name": "_aadhaar",
          "type": "string"
        }
      ],
      "name": "addParticipant",
      "outputs": [
        {
          "internalType": "uint32",
          "name": "",
          "type": "uint32"
        }
      ],
      "stateMutability": "nonpayable",
      "type": "function"
    },
    {
      "inputs": [
        {
          "internalType": "uint32",
          "name": "_participant_id",
          "type": "uint32"
        }
      ],
      "name": "getParticipant",
      "outputs": [
        {
          "internalType": "string",
          "name": "",
          "type": "string"
        },
        {
          "internalType": "address",
          "name": "",
          "type": "address"
        },
        {
          "internalType": "string",
          "name": "",
          "type": "string"
        }
      ],
      "stateMutability": "view",
      "type": "function",
      "constant": true
    },
    {
      "inputs": [
        {
          "internalType": "address",
          "name": "patient",
          "type": "address"
        },
        {
          "internalType": "string",
          "name": "medicine",
          "type": "string"
        },
        {
          "internalType": "uint32",
          "name": "timestamp",
          "type": "uint32"
        }
      ],
      "name": "addPrescription",
      "outputs": [],
      "stateMutability": "nonpayable",
      "type": "function"
    },
    {
      "inputs": [
        {
          "internalType": "address",
          "name": "patient",
          "type": "address"
        },
        {
          "internalType": "uint256",
          "name": "recordId",
          "type": "uint256"
        }
      ],
      "name": "getPrescription",
      "outputs": [
        {
          "internalType": "address",
          "name": "",
          "type": "address"
        },
        {
          "internalType": "uint256",
          "name": "",
          "type": "uint256"
        },
        {
          "internalType": "string",
          "name": "",
          "type": "string"
        },
        {
          "internalType": "uint32",
          "name": "",
          "type": "uint32"
        }
      ],
      "stateMutability": "view",
      "type": "function",
      "constant": true
    }
  ],
  "bytecode": "0x608060405260008060006101000a81548163ffffffff021916908363ffffffff16021790555060008060046101000a81548163ffffffff021916908363ffffffff16021790555060008060086101000a81548163ffffffff021916908363ffffffff160217905550600080600c6101000a81548163ffffffff021916908363ffffffff16021790555060008060106101000a81548163ffffffff021916908363ffffffff1602179055503480156100b557600080fd5b50611c20806100c56000396000f3fe608060405234801561001057600080fd5b50600436106100b45760003560e01c80637763849e116100715780637763849e146101915780637d0a9ac9146101c457806394f0df61146101f85780639f9879dd1461022b578063e7aa80ca14610249578063fc2da91014610279576100b4565b806304fcf3f6146100b957806314762584146100d55780633471eadb146100f35780633b26a65d146101115780634de188a7146101435780635a24f2c714610161575b600080fd5b6100d360048036038101906100ce9190611222565b610297565b005b6100dd6104ce565b6040516100ea91906112a0565b60405180910390f35b6100fb6104e4565b60405161010891906112a0565b60405180910390f35b61012b600480360381019061012691906112bb565b6104f8565b60405161013a93929190611376565b60405180910390f35b61014b6106aa565b60405161015891906112a0565b60405180910390f35b61017b600480360381019061017691906113bb565b6106c0565b60405161018891906112a0565b60405180910390f35b6101ab60048036038101906101a691906114dc565b610a54565b6040516101bb949392919061152b565b60405180910390f35b6101de60048036038101906101d991906112bb565b610bf7565b6040516101ef959493929190611577565b60405180910390f35b610212600480360381019061020d91906114dc565b610e6d565b604051610222949392919061152b565b60405180910390f35b610233610f62565b60405161024091906112a0565b60405180910390f35b610263600480360381019061025e91906115e6565b610f78565b6040516102709190611613565b60405180910390f35b610281611018565b60405161028e91906112a0565b60405180910390f35b6040516020016102a69061168c565b60405160208183030381529060405280519060200120600260003373ffffffffffffffffffffffffffffffffffffffff1673ffffffffffffffffffffffffffffffffffffffff16815260200190815260200160002060405160200161030b9190611799565b6040516020818303038152906040528051906020012014610361576040517f08c379a0000000000000000000000000000000000000000000000000000000008152600401610358906117fc565b60405180910390fd5b600080601081819054906101000a900463ffffffff16809291906103849061184b565b91906101000a81548163ffffffff021916908363ffffffff16021790555063ffffffff16905060405180608001604052808573ffffffffffffffffffffffffffffffffffffffff1681526020018281526020018481526020018363ffffffff16815250600360008673ffffffffffffffffffffffffffffffffffffffff1673ffffffffffffffffffffffffffffffffffffffff168152602001908152602001600020600083815260200190815260200160002060008201518160000160006101000a81548173ffffffffffffffffffffffffffffffffffffffff021916908373ffffffffffffffffffffffffffffffffffffffff16021790555060208201518160010155604082015181600201908161049d9190611a0e565b5060608201518160030160006101000a81548163ffffffff021916908363ffffffff16021790555090505050505050565b600060089054906101000a900463ffffffff1681565b60008054906101000a900463ffffffff1681565b606060006060600160008563ffffffff1663ffffffff168152602001908152602001600020600001600160008663ffffffff1663ffffffff16815260200190815260200160002060030160009054906101000a900473ffffffffffffffffffffffffffffffffffffffff16600160008763ffffffff1663ffffffff168152602001908152602001600020600201828054610591906116d0565b80601f01602080910402602001604051908101604052809291908181526020018280546105bd906116d0565b801561060a5780601f106105df5761010080835404028352916020019161060a565b820191906000526020600020905b8154815290600101906020018083116105ed57829003601f168201915b5050505050925080805461061d906116d0565b80601f0160208091040260200160405190810160405280929190818152602001828054610649906116d0565b80156106965780601f1061066b57610100808354040283529160200191610696565b820191906000526020600020905b81548152906001019060200180831161067957829003601f168201915b505050505090509250925092509193909250565b600060049054906101000a900463ffffffff1681565b600080600090506040516020016106d69061168c565b60405160208183030381529060405280519060200120846040516020016106fd9190611b11565b604051602081830303815290604052805190602001200361075e576000600481819054906101000a900463ffffffff168092919061073a9061184b565b91906101000a81548163ffffffff021916908363ffffffff16021790555050610896565b60405160200161076d90611b74565b60405160208183030381529060405280519060200120846040516020016107949190611b11565b60405160208183030381529060405280519060200120036107f45760008081819054906101000a900463ffffffff16809291906107d09061184b565b91906101000a81548163ffffffff021916908363ffffffff16021790555050610895565b60405160200161080390611bd5565b604051602081830303815290604052805190602001208460405160200161082a9190611b11565b604051602081830303815290604052805190602001200361088b576000600881819054906101000a900463ffffffff16809291906108679061184b565b91906101000a81548163ffffffff021916908363ffffffff16021790555050610894565b80915050610a4b565b5b5b6000600c81819054906101000a900463ffffffff16809291906108b89061184b565b91906101000a81548163ffffffff021916908363ffffffff160217905550905086600160008363ffffffff1663ffffffff16815260200190815260200160002060000190816109079190611a0e565b5085600160008363ffffffff1663ffffffff16815260200190815260200160002060010190816109379190611a0e565b5084600160008363ffffffff1663ffffffff16815260200190815260200160002060030160006101000a81548173ffffffffffffffffffffffffffffffffffffffff021916908373ffffffffffffffffffffffffffffffffffffffff16021790555083600160008363ffffffff1663ffffffff16815260200190815260200160002060020190816109c89190611a0e565b5082600160008363ffffffff1663ffffffff16815260200190815260200160002060040190816109f89190611a0e565b5083600260008773ffffffffffffffffffffffffffffffffffffffff1673ffffffffffffffffffffffffffffffffffffffff1681526020019081526020016000209081610a459190611a0e565b50809150505b95945050505050565b6000806060600080600360008873ffffffffffffffffffffffffffffffffffffffff1673ffffffffffffffffffffffffffffffffffffffff16815260200190815260200160002060008781526020019081526020016000206040518060800160405290816000820160009054906101000a900473ffffffffffffffffffffffffffffffffffffffff1673ffffffffffffffffffffffffffffffffffffffff1673ffffffffffffffffffffffffffffffffffffffff16815260200160018201548152602001600282018054610b27906116d0565b80601f0160208091040260200160405190810160405280929190818152602001828054610b53906116d0565b8015610ba05780601f10610b7557610100808354040283529160200191610ba0565b820191906000526020600020905b815481529060010190602001808311610b8357829003601f168201915b505050505081526020016003820160009054906101000a900463ffffffff1663ffffffff1663ffffffff16815250509050806000015181602001518260400151836060015194509450945094505092959194509250565b6001602052806000526040600020600091509050806000018054610c1a906116d0565b80601f0160208091040260200160405190810160405280929190818152602001828054610c46906116d0565b8015610c935780601f10610c6857610100808354040283529160200191610c93565b820191906000526020600020905b815481529060010190602001808311610c7657829003601f168201915b505050505090806001018054610ca8906116d0565b80601f0160208091040260200160405190810160405280929190818152602001828054610cd4906116d0565b8015610d215780601f10610cf657610100808354040283529160200191610d21565b820191906000526020600020905b815481529060010190602001808311610d0457829003601f168201915b505050505090806002018054610d36906116d0565b80601f0160208091040260200160405190810160405280929190818152602001828054610d62906116d0565b8015610daf5780601f10610d8457610100808354040283529160200191610daf565b820191906000526020600020905b815481529060010190602001808311610d9257829003601f168201915b5050505050908060030160009054906101000a900473ffffffffffffffffffffffffffffffffffffffff1690806004018054610dea906116d0565b80601f0160208091040260200160405190810160405280929190818152602001828054610e16906116d0565b8015610e635780601f10610e3857610100808354040283529160200191610e63565b820191906000526020600020905b815481529060010190602001808311610e4657829003601f168201915b5050505050905085565b6003602052816000526040600020602052806000526040600020600091509150508060000160009054906101000a900473ffffffffffffffffffffffffffffffffffffffff1690806001015490806002018054610ec9906116d0565b80601f0160208091040260200160405190810160405280929190818152602001828054610ef5906116d0565b8015610f425780601f10610f1757610100808354040283529160200191610f42565b820191906000526020600020905b815481529060010190602001808311610f2557829003601f168201915b5050505050908060030160009054906101000a900463ffffffff16905084565b600060109054906101000a900463ffffffff1681565b60026020528060005260406000206000915090508054610f97906116d0565b80601f0160208091040260200160405190810160405280929190818152602001828054610fc3906116d0565b80156110105780601f10610fe557610100808354040283529160200191611010565b820191906000526020600020905b815481529060010190602001808311610ff357829003601f168201915b505050505081565b6000600c9054906101000a900463ffffffff1681565b6000604051905090565b600080fd5b600080fd5b600073ffffffffffffffffffffffffffffffffffffffff82169050919050565b600061106d82611042565b9050919050565b61107d81611062565b811461108857600080fd5b50565b60008135905061109a81611074565b92915050565b600080fd5b600080fd5b6000601f19601f8301169050919050565b7f4e487b7100000000000000000000000000000000000000000000000000000000600052604160045260246000fd5b6110f3826110aa565b810181811067ffffffffffffffff82111715611112576111116110bb565b5b80604052505050565b600061112561102e565b905061113182826110ea565b919050565b600067ffffffffffffffff821115611151576111506110bb565b5b61115a826110aa565b9050602081019050919050565b82818337600083830152505050565b600061118961118484611136565b61111b565b9050828152602081018484840111156111a5576111a46110a5565b5b6111b0848285611167565b509392505050565b600082601f8301126111cd576111cc6110a0565b5b81356111dd848260208601611176565b91505092915050565b600063ffffffff82169050919050565b6111ff816111e6565b811461120a57600080fd5b50565b60008135905061121c816111f6565b92915050565b60008060006060848603121561123b5761123a611038565b5b60006112498682870161108b565b935050602084013567ffffffffffffffff81111561126a5761126961103d565b5b611276868287016111b8565b92505060406112878682870161120d565b9150509250925092565b61129a816111e6565b82525050565b60006020820190506112b56000830184611291565b92915050565b6000602082840312156112d1576112d0611038565b5b60006112df8482850161120d565b91505092915050565b600081519050919050565b600082825260208201905092915050565b60005b83811015611322578082015181840152602081019050611307565b60008484015250505050565b6000611339826112e8565b61134381856112f3565b9350611353818560208601611304565b61135c816110aa565b840191505092915050565b61137081611062565b82525050565b60006060820190508181036000830152611390818661132e565b905061139f6020830185611367565b81810360408301526113b1818461132e565b9050949350505050565b600080600080600060a086880312156113d7576113d6611038565b5b600086013567ffffffffffffffff8111156113f5576113f461103d565b5b611401888289016111b8565b955050602086013567ffffffffffffffff8111156114225761142161103d565b5b61142e888289016111b8565b945050604061143f8882890161108b565b935050606086013567ffffffffffffffff8111156114605761145f61103d565b5b61146c888289016111b8565b925050608086013567ffffffffffffffff81111561148d5761148c61103d565b5b611499888289016111b8565b9150509295509295909350565b6000819050919050565b6114b9816114a6565b81146114c457600080fd5b50565b6000813590506114d6816114b0565b92915050565b600080604083850312156114f3576114f2611038565b5b60006115018582860161108b565b9250506020611512858286016114c7565b9150509250929050565b611525816114a6565b82525050565b60006080820190506115406000830187611367565b61154d602083018661151c565b818103604083015261155f818561132e565b905061156e6060830184611291565b95945050505050565b600060a0820190508181036000830152611591818861132e565b905081810360208301526115a5818761132e565b905081810360408301526115b9818661132e565b90506115c86060830185611367565b81810360808301526115da818461132e565b90509695505050505050565b6000602082840312156115fc576115fb611038565b5b600061160a8482850161108b565b91505092915050565b6000602082019050818103600083015261162d818461132e565b905092915050565b600081905092915050565b7f446f63746f720000000000000000000000000000000000000000000000000000600082015250565b6000611676600683611635565b915061168182611640565b600682019050919050565b600061169782611669565b9150819050919050565b7f4e487b7100000000000000000000000000000000000000000000000000000000600052602260045260246000fd5b600060028204905060018216806116e857607f821691505b6020821081036116fb576116fa6116a1565b5b50919050565b60008190508160005260206000209050919050565b60008154611723816116d0565b61172d8186611635565b94506001821660008114611748576001811461175d57611790565b60ff1983168652811515820286019350611790565b61176685611701565b60005b8381101561178857815481890152600182019150602081019050611769565b838801955050505b50505092915050565b60006117a58284611716565b915081905092915050565b7f4f6e6c7920646f63746f727320616c6c6f776564000000000000000000000000600082015250565b60006117e66014836112f3565b91506117f1826117b0565b602082019050919050565b60006020820190508181036000830152611815816117d9565b9050919050565b7f4e487b7100000000000000000000000000000000000000000000000000000000600052601160045260246000fd5b6000611856826111e6565b915063ffffffff820361186c5761186b61181c565b5b600182019050919050565b60006020601f8301049050919050565b600082821b905092915050565b6000600883026118c47fffffffffffffffffffffffffffffffffffffffffffffffffffffffffffffffff82611887565b6118ce8683611887565b95508019841693508086168417925050509392505050565b6000819050919050565b600061190b611906611901846114a6565b6118e6565b6114a6565b9050919050565b6000819050919050565b611925836118f0565b61193961193182611912565b848454611894565b825550505050565b600090565b61194e611941565b61195981848461191c565b505050565b5b8181101561197d57611972600082611946565b60018101905061195f565b5050565b601f8211156119c25761199381611701565b61199c84611877565b810160208510156119ab578190505b6119bf6119b785611877565b83018261195e565b50505b505050565b600082821c905092915050565b60006119e5600019846008026119c7565b1980831691505092915050565b60006119fe83836119d4565b9150826002028217905092915050565b611a17826112e8565b67ffffffffffffffff811115611a3057611a2f6110bb565b5b611a3a82546116d0565b611a45828285611981565b600060209050601f831160018114611a785760008415611a66578287015190505b611a7085826119f2565b865550611ad8565b601f198416611a8686611701565b60005b82811015611aae57848901518255600182019150602085019450602081019050611a89565b86831015611acb5784890151611ac7601f8916826119d4565b8355505b6001600288020188555050505b505050505050565b6000611aeb826112e8565b611af58185611635565b9350611b05818560208601611304565b80840191505092915050565b6000611b1d8284611ae0565b915081905092915050565b7f50617469656e7400000000000000000000000000000000000000000000000000600082015250565b6000611b5e600783611635565b9150611b6982611b28565b600782019050919050565b6000611b7f82611b51565b9150819050919050565b7f506861726d616369737400000000000000000000000000000000000000000000600082015250565b6000611bbf600a83611635565b9150611bca82611b89565b600a82019050919050565b6000611be082611bb2565b915081905091905056fea264697066735822122084f7ccb489018a96b7c4e5ad33a23d0f52b3260abd4b57d64719003218011b4464736f6c63430008130033",
  "immutableReferences": {},
  "source": "// SPDX-License-Identifier: MIT\r\npragma solidity >=0.4.21 <0.9.0;\r\n\r\ncontract PrescribeRight{\r\n    uint32 public patient_id = 0; //Patient ID is stored here\r\n    uint32 public doctor_id = 0; //Doctor ID is stored here\r\n    uint32 public pharm_id = 0; //Pharmacist ID is stored here\r\n    uint32 public participant_id = 0; //Participant ID is stored here\r\n    uint32 public record_id = 0; //Patient record ID is stored here\r\n\r\n    struct participant{ //Participant Structure\r\n        string userName; //User Name\r\n        string password; //Password\r\n        string participantType; //Type of Participant (Doctor, Patient, Pharmacist)\r\n        address participantAddress; //Ethereum address of Participant\r\n        string aadhaar_no;\r\n    }\r\n\r\n    mapping(uint32 => participant) public participants; //accessing by participant details by index values(id nos)\r\n    mapping(address => string) public participants_addr; //accessing participant type by address \r\n\r\n    //addParticipant() function adds a new participant\r\n    function addParticipant(string memory _name, string memory _pass, address _pAdd, string memory _pType, string memory _aadhaar) public returns (uint32){\r\n        uint32 userId=0;\r\n        /**To check whether the participant is Doctor/Patient/Pharmacist and increment their corresponding ids and update the user id */\r\n        if (keccak256(abi.encodePacked(_pType)) == keccak256(abi.encodePacked(\"Doctor\"))){\r\n            doctor_id++; //doctor ID is stored in blockchain\r\n        }\r\n        else if (keccak256(abi.encodePacked(_pType)) == keccak256(abi.encodePacked(\"Patient\"))){\r\n            patient_id++; //patient ID is stored in blockchain\r\n        }\r\n        else if (keccak256(abi.encodePacked(_pType)) == keccak256(abi.encodePacked(\"Pharmacist\"))){\r\n            pharm_id++; //pharmacist ID is stored in blockchain\r\n        }\r\n        else{\r\n            return userId; //If incorrect type is received, do nothing, return 0\r\n        }\r\n        \r\n        userId = participant_id++;\r\n        participants[userId].userName = _name; \r\n        participants[userId].password = _pass;\r\n        participants[userId].participantAddress = _pAdd;\r\n        participants[userId].participantType = _pType;\r\n        participants[userId].aadhaar_no = _aadhaar; \r\n\r\n        participants_addr[_pAdd] = _pType;\r\n\r\n        return userId; //Return user_id\r\n    }\r\n    \r\n//getParticipant() function fetches the requested participant and returns the attributes that describe the participant\r\n    function getParticipant(uint32 _participant_id) public view returns (string memory,address,string memory) {\r\n        return (participants[_participant_id].userName, //Name of the participant\r\n                participants[_participant_id].participantAddress, //Ethernet address\r\n                participants[_participant_id].participantType); //Participent type\r\n    }\r\n\r\n\r\n    modifier onlyDoctor() {\r\n        require(keccak256(abi.encodePacked(participants_addr[msg.sender])) == keccak256(abi.encodePacked(\"Doctor\")), \"Only doctors allowed\");\r\n        _;\r\n    }\r\n\r\n    struct Prescription { //structure of a prescription\r\n        address PatientAddr;\r\n        uint256 patientRecordId;\r\n        string medicine;\r\n        uint32 timestamp;\r\n    }\r\n\r\n    mapping(address => mapping(uint256 => Prescription)) public patientRecords;\r\n\r\n    function addPrescription(address patient, string memory medicine, uint32 timestamp) public onlyDoctor(){\r\n        uint256 recordID = record_id++;\r\n        patientRecords[patient][recordID] = Prescription(patient, recordID, medicine, timestamp);\r\n    }\r\n\r\n    function getPrescription(address patient, uint256 recordId) public view returns (address, uint256, string memory, uint32) {\r\n        Prescription memory prescription = patientRecords[patient][recordId];\r\n        return (prescription.PatientAddr, prescription.patientRecordId, prescription.medicine, prescription.timestamp);\r\n    }\r\n    \r\n}",
  "sourcePath": "F:\\Prescribe Right App\\Blockchain\\Project1\\contracts\\PrescribeRight.sol",
  "compiler": {
    "name": "solc",
    "version": "0.8.19+commit.7dd6d404.Emscripten.clang"
  },
  "schemaVersion": "3.4.14",
  "updatedAt": "2023-07-19T15:13:04.353Z",
  "networkType": "ethereum",
  "devdoc": {
    "kind": "dev",
    "methods": {},
    "version": 1
  },
  "userdoc": {
    "kind": "user",
    "methods": {},
    "version": 1
  }
}